:020000040000FA
:100000000A128A11F12FFF1B0D2883137F18831703
:100010000008840A0319FF0A080000308A00040857
:10002000840A820700343134323433344134343476
:1000300035343634423437343834393443342A345E
:1000400030342334443449344E34533449345234F4
:100050004134203441342034533445345134553400
:1000600045344E342E3400345334453451345534F1
:1000700045344E3443344934413444344F3452349B
:100080000034543445344D3450344F3420345234D9
:10009000453441344C343A340034503452344F34C3
:1000A0004734523441344D344134563445344C3461
:0200B00000341A
:10014C002530A8280800831203132308AD280800C3
:10015C00831203132408B228080083120313091016
:10016C000914080001300A128A11CB220A128A11D2
:10017C00080064008001840A040603190034040694
:10018C00C028F7011130F8008030F90000300A1255
:10019C008A1194210A128A110800F1007108F000EA
:1001AC007D08253E84007008831380000130F00028
:1001BC007008FD070800FF308312031386008316B6
:1001CC00031789010F30831603138600FF30950047
:1001DC00811383120313A401A3010800F600740811
:1001EC00F50006300310F50DFF3E031DF8287608C8
:1001FC0075077F39803E0A128A11CB220A128A11A6
:10020C000800F1017C087D0603190D290E291B2914
:10021C007C08253E840083130008F0007008F10070
:10022C000130F0007008FC071B2971081D2908001B
:10023C00F10030290130FD027D08253E8400831336
:10024C000008F0007008F2007D08253E8400800153
:10025C000130F10271080319342935293C297D0834
:10026C00031D39293A2920293C293C2972083E29A9
:10027C000800F1007108F0007008F20083120313FB
:10028C000816720E0F39F00008087006F039700667
:10029C00880088120D30F000F00B522983120313E2
:1002AC008816081672080F39F00008087006F03925
:1002BC007006880088120D30F000F00B6329831251
:1002CC00031388160800F1008030F0007008F3006A
:1002DC00F20189298312031389107108730503191C
:1002EC00782979297B2909157C290911051C7F2975
:1002FC00802985297308F0007008F2048529891477
:10030C000310F30C89297308031D8D298E2970297C
:10031C00831203138910720893290800FB007708D5
:10032C00FA007A08F4007B080A128A11F4200A12E7
:10033C008A11B529790883120313FF007808840009
:10034C000A128A1103200A128A110A128A113F21F9
:10035C000A128A110130F8070318F90AB52979082D
:10036C0083120313FF00780884000A128A110320F9
:10037C000A128A11003A031DC429C529A029C629CD
:10038C000800F3007308F200720883120313A20032
:10039C007008F2007208A1007108F2007208A00047
:1003AC00091083160317881283160313091083127E
:1003BC00031389108316031708138316031389106C
:1003CC00831203130911831603178813831603135F
:1003DC0009118316031708108316031305148312CF
:1003EC0003138910091109140800F7012230F800D1
:1003FC008030F90002300A128A1194210A128A11F3
:10040C00023083120313B7000430B600B930B500C4
:10041C00B50B0E2AB60B0E2AB70B0E2A152AF701AE
:10042C00F70A3B30F8008030F90002300A128A11CA
:10043C0094210A128A110B3083120313B700263051
:10044C00B6005D30B500B50B292AB60B292AB70BBF
:10045C00292A0A128A11B8200A128A11080083125A
:10046C0003132008FF3EF4007408F7000A128A11E7
:10047C00B3200A128A11F801632A7803FF3A77072E
:10048C00831203132107F4007408840083130008FB
:10049C000A128A1169210A128A11F500780883124E
:1004AC0003132207F6007608840075088313800076
:1004BC000130F4007408F807632A83120313200830
:1004CC007802031C6A2A6B2A432A6C2A0A128A11A4
:1004DC00B3200A128A110800F03083120313880526
:1004EC0008128816C0308316031388000D30F500EF
:1004FC00FB30F400F40B802AF50B802A852A20307F
:10050C000A128A11CB220A128A110230F6004530E7
:10051C00F500A930F400F40B912AF50B912AF60B97
:10052C00912A982A28300A128A11CB220A128A118F
:10053C000230F6004530F500A930F400F40BA42A83
:10054C00F50BA42AF60BA42AAB2A0C300A128A113A
:10055C00CB220A128A110230F6004530F500A93080
:10056C00F400F40BB72AF50BB72AF60BB72ABE2A00
:10057C0001300A128A11CB220A128A1102300A1295
:10058C008A11CB220A128A110800F2007208F000BC
:10059C007008F300831203130812730E0F39F00066
:1005AC0008087006F0397006880088127203031967
:1005BC00E02AE12AE82A02307206031DE62AE72A1D
:1005CC00F22AE82A0330F1009730F000F00BEC2A05
:1005DC00F10BEC2AF12AF72A0D30F000F00BF42A7B
:1005EC00F72A831203138816203072060319FF2A88
:1005FC00002B292B081273080F39F000080870061D
:10060C00F039700688008812720303190E2B0F2B19
:10061C00162B02307206031D142B152B202B162BB8
:10062C000330F1009730F000F00B1A2BF10B1A2B62
:10063C001F2B252B0D30F000F00B222B252B8312BA
:10064C0003138816292B0800F801FA0104307A02EA
:10065C00031C312B322B342B9D2B9D2B0130F000A6
:10066C007A0A3A2B0310F00DFF3E031D382B70084D
:10067C00FF3AF100F10E83120313060871060F39CD
:10068C0071068600F90104307902031C4E2B4F2BA6
:10069C00512B922B922B06080F39F0007009F100A8
:1006AC00F201F209790AF3000130F4000030F50090
:1006BC00622B0310F40DF50DF30B5F2B7108740511
:1006CC00F60072087505F7007608770403196F2B8E
:1006DC00702B872B7908F00002300310F00DFF3ED1
:1006EC00031D732B01307007F1007A087107840029
:1006FC000A128A110D200A128A11F2007208F800EF
:10070C00872B0130F0007008F90704307902031CC4
:10071C00902B912B512B922B0130F0007008FA0783
:10072C0004307A02031C9B2B9C2B342B9D2B8312A5
:10073C0003132308F0007008A4007808F000700878
:10074C00A300A82B080083120313C101BE01C4012E
:10075C00C201C3010A128A1172220A128A110A12E8
:10076C008A11FB210A128A110A128A11E1200A123B
:10077C008A113F3083120313B8003808F000F101DE
:10078C00F10A40300A128A11C7210A128A11CE2BA3
:10079C000A128A112A230A128A110A128A11C720F4
:1007AC000A128A11272E0A3083120313C20000305A
:1007BC00C300A12E0A128A1107210A128A11831270
:1007CC000313B8003808C40041304406031DEF2B56
:1007DC00F02BF52B6430C2000030C300A12E423048
:1007EC004406031DFA2BFB2B002C6E30C20000308C
:1007FC00C300A12E43304406031D052C062C0B2CE4
:10080C007830C2000030C300A12E44304406031DD2
:10081C00102C112C162C8230C2000030C300A12EDB
:10082C0031304406031D1B2C1C2C212C8C30C20097
:10083C000030C300A12E32304406031D262C272C79
:10084C002C2C9630C2000030C300A12E333044064D
:10085C00031D312C322C372CA030C2000030C300C9
:10086C00A12E34304406031D3C2C3D2C422CAA30C6
:10087C00C2000030C300A12E35304406031D472CA6
:10088C00482C4D2CB430C2000030C300A12E3630A1
:10089C004406031D522C532C582CBE30C200003081
:1008AC00C300A12E37304406031D5D2C5E2C632C37
:1008BC00C830C2000030C300A12E38304406031DDE
:1008CC00682C692C6E2CD230C2000030C300A12ED3
:1008DC0039304406031D732C742C792CDC30C20087
:1008EC000030C300A12E61304406031D7E2C7F2CEA
:1008FC00842CE630C2000030C300A12E62304406C6
:10090C00031D892C8A2C8F2CF030C2000030C300C0
:10091C00A12E63304406031D942C952C9A2CFA308E
:10092C00C2000030C300A12E64304406031D9F2C6E
:10093C00A02CA12E0430C2000130C300A12EA12E88
:10094C00A12EA12EA12EA12EA12EA12EA12EA12E23
:10095C00A12EA12EA12EA12EA12EA12EA12EA12E13
:10096C003F146530C2000030C300A12E401CBF2CC8
:10097C00C02CA12E0A30C2000030C300A12EA12E23
:10098C00BF146F30C2000030C300A12E401DCF2C0D
:10099C00D02CA12E0A30C2000030C300A12EA12EF3
:1009AC003F157930C2000030C300A12E401EDF2C51
:1009BC00E02CA12E0A30C2000030C300A12EA12EC3
:1009CC00BF158330C2000030C300A12E401FEF2C96
:1009DC00F02CA12E0A30C2000030C300A12EA12E93
:1009EC00063083120313BA001330B900AD30B800CF
:1009FC00B80BFE2CB90BFE2CBA0BFE2C8D308312CF
:100A0C000313C2000030C300A12E0A30C200003014
:100A1C00C300A12E0B3083120313BA002630B90089
:100A2C005D30B800B80B182DB90B182DBA0B182D5A
:100A3C00973083120313C2000030C300A12E0A307A
:100A4C00C2000030C300A12E103083120313BA0071
:100A5C003930B9000D30B800B80B322DB90B322D2E
:100A6C00BA0B322DA13083120313C2000030C30025
:100A7C00A12E0A30C2000030C300A12E1530831203
:100A8C000313BA004B30B900BD30B800B80B4C2D75
:100A9C00B90B4C2DBA0B4C2D532DAB3083120313C9
:100AAC00C2000030C300A12E0A30C2000030C300C7
:100ABC00A12E1A3083120313BA005E30B9006D30C8
:100ACC00B800B80B672DB90B672DBA0B672D6E2DBF
:100ADC00B53083120313C2000030C300A12E0A30BC
:100AEC00C2000030C300A12E1F3083120313BA00C2
:100AFC007130B9001D30B800B80B822DB90B822DA6
:100B0C00BA0B822D892DBF3083120313C200003023
:100B1C00C300A12E0A30C2000030C300A12E243025
:100B2C0083120313BA008330B900CE30B800B80B6F
:100B3C009D2DB90B9D2DBA0B9D2D0000C930831234
:100B4C000313C2000030C300A12E0A30C2000030D3
:100B5C00C300A12E293083120313BA009630B900BA
:100B6C007E30B800B80BB82DB90BB82DBA0BB82D18
:100B7C000000D33083120313C2000030C300A12E37
:100B8C000A30C2000030C300A12E2E308312031392
:100B9C00BA00A930B9002E30B800B80BD32DB90B60
:100BAC00D32DBA0BD32D0000DD3083120313C200FA
:100BBC000030C300A12E0A30C2000030C300A12EA9
:100BCC003F10E730C2000030C300A12EC01CEF2D37
:100BDC00F02DA12E0A30C2000030C300A12EA12E90
:100BEC00BF10F130C2000030C300A12EC01DFF2D7C
:100BFC00002EA12E0A30C2000030C300A12EA12E5F
:100C0C003F11FB30C2000030C300A12EC01E0F2EBE
:100C1C00102EA12E0A30C2000030C300A12EA12E2E
:100C2C00BF110530C2000130C300A12EC01F1F2E02
:100C3C00202EA12E0A30C2000030C300A12EA12EFE
:100C4C00A12E831203134308003A0319312E013AE3
:100C5C000319992EA12E4208003A0319D92B0A3AEE
:100C6C000319E02B6E3A0319B62C013A0319BC2C6C
:100C7C000B3A0319C62C013A0319CC2C173A031959
:100C8C00D62C013A0319DC2CFB3A0319E62C013A59
:100C9C000319EC2C0F3A0319F62C013A03190B2DFE
:100CAC001B3A0319102D013A0319252D373A031954
:100CBC002A2D013A03193F2D0B3A0319442D013A01
:100CCC0003195A2D1F3A03195F2D013A0319752D7B
:100CDC000B3A03197A2D013A0319902D773A03191F
:100CEC00952D013A0319AB2D1B3A0319B02D013A7E
:100CFC000319C62D0F3A0319CB2D013A0319E12D17
:100D0C003B3A0319E62D013A0319EC2D173A031956
:100D1C00F62D013A0319FC2D0B3A0319062E013A54
:100D2C0003190C2EA12E4208043A0319162E013A6F
:100D3C0003191C2EA12E0A128A11A9200A128A113B
:100D4C00003A0319AA2EAB2EE72F0A128A11AE20F5
:100D5C000A128A11003A031DB42EB52EE72F0A127F
:100D6C008A11A9200A128A1183120313B8003808B9
:100D7C00C1009C2F0130B8003808BB073B1CC72EA4
:100D8C00C82ECF2E41080A128A11D3200A128A11BA
:100D9C00D62F83120313410820380A128A11D3204C
:100DAC000A128A11D62FD62F013083120313B800E2
:100DBC003808BC073C1CE32EE42EEB2E41080A122B
:100DCC008A11D3200A128A11D62F831203134108D9
:100DDC0020380A128A11D3200A128A11D62FD62F44
:100DEC00013083120313B8003808BD073D1CFF2ED9
:100DFC00002F072F41080A128A11D3200A128A11D8
:100E0C00D62F83120313410820380A128A11D320DB
:100E1C000A128A11D62FD62F013083120313B80071
:100E2C003808BE073E1C1B2F1C2F232F41080A120B
:100E3C008A11D3200A128A11D62F83120313410868
:100E4C0020380A128A11D3200A128A11D62FD62FD3
:100E5C0010300A128A111E210A128A110A128A11E2
:100E6C00B8200A128A1183120313BE01BD01BC0102
:100E7C00BB01D62F482F482F482F482F482F482FDB
:100E8C00482F482F41080A128A11D3200A128A11BE
:100E9C00D62F672F83120313BB01902FBB01BB0A04
:100EAC00902FBC01902FBC01BC0A902FBD01902F3C
:100EBC00BD01BD0A902FBE01902FBE01BE0A902F1E
:100ECC00902F01300A128A111E210A128A118312E4
:100EDC000313B800B9013908003A0319762F902F83
:100EEC003808413A0319502F033A0319572F013A86
:100EFC0003195C2F073A0319612F253A0319542F54
:100F0C00033A0319592F013A03195E2F073A0319B3
:100F1C00632F902F0A128A11B8200A128A11D62F29
:100F2C0083120313C201C301D62FD62F4108B80078
:100F3C00B9013908003A0319A42FD62F3808233ADF
:100F4C000319962F093A0319672F1A3A03192E2FF2
:100F5C00013A0319482F033A0319482F013A031990
:100F6C00482F073A0319482F013A0319482F033A1F
:100F7C000319482F013A0319482F0F3A0319482F28
:100F8C00013A0319482F783A0319C02E033A031972
:100F9C00DA2E013A0319F62E073A0319122FD62F1F
:100FAC00F701F70A0A128A11A6200A128A11F80010
:100FBC000030F90000300A128A1194210A128A11A9
:100FCC00E72F0A128A1135220A128A11CE2BCE2B48
:100FDC000A128A110028FC01FD01831320308400C1
:100FEC0035300A128A11BF200A128A1183010A12A3
:040FFC008A11A92B82
:02400E00D4EFED
:00000001FF
